:0400000007EF00F016
:1000080001827BED03F02CEF04F00750D96EDA6A19
:10001800DF50096E0904D8A414EF00F016EF00F0C1
:100028003DEF00F03750D8B41CEF00F01EEF00F0A1
:1000380029EF00F0F30E046E2F0E056ECC0E066E3F
:10004800CFEC03F0818032EF00F0DB0E046E2F0E50
:10005800056ECC0E066ECFEC03F08190DB0E046EBD
:100068002F0E056ECE0E066ECFEC03F0819EC0EF0C
:1000780000F0030E0918D8A444EF00F046EF00F092
:100088006DEF00F03750D8B44CEF00F04EEF00F0B1
:1000980059EF00F0F60E046E2F0E056ECE0E066EAA
:1000A800CFEC03F0818E62EF00F0DB0E046E2F0EB2
:1000B800056ECE0E066ECFEC03F0819EDB0E046E4D
:1000C8002F0E056ECC0E066ECFEC03F08190C0EFBC
:1000D80000F0020E0918D8A474EF00F076EF00F0D3
:1000E800A5EF00F03750D8B47CEF00F07EEF00F0B9
:1000F80092EF00F0F30E046E2F0E056ECC0E066E16
:10010800CFEC03F08180F60E046E2F0E056ECE0E36
:10011800066ECFEC03F0818EC0EF00F0DB0E046EAC
:100128002F0E056ECC0E066ECFEC03F08190DB0E21
:10013800046E2F0E056ECE0E066ECFEC03F03AEF6E
:1001480000F00950D8A4ABEF00F0ADEF00F0C0EF1D
:1001580000F0DB0E046E2F0E056ECC0E066ECFEC93
:1001680003F08190DB0E046E2F0E056ECE0E066E28
:10017800CFEC03F03AEF00F012001250D96EDA6AB1
:10018800010ED926DF50146E1450166E156A1250DF
:10019800D96EDA6ADF50176E17501510186E1650A0
:1001A800196EC40E106E18C002F019C003F0030EC9
:1001B800056EE80E046E10EC03F00250300F73EC7D
:1001C80004F0C50E106E056A640E046E18C002F0C5
:1001D80019C003F010EC03F002C009F003C00AF0E4
:1001E8000C6A0A0E0B6E49EC03F00950300F73ECE1
:1001F80004F0C60E106E056A0A0E046E18C002F0EE
:1002080019C003F010EC03F002C009F003C00AF0B3
:100218000C6A0A0E0B6E49EC03F00950300F73ECB0
:1002280004F0C70E106E18C009F019C00AF00C6A65
:100238000A0E0B6E49EC03F00950300F73EC04F012
:100248001200076A05BE2DEF01F02BEF01F033EF26
:1002580001F0046C051ED8B0052A010E076E03BE16
:100268003AEF01F038EF01F040EF01F0026C031EA5
:10027800D8B0032A010E071A096A000E086E045046
:100288000510D8B44AEF01F04CEF01F074EF01F01B
:10029800010E066E54EF01F0D89004360536062A92
:1002A80005AE59EF01F05BEF01F050EF01F0D89087
:1002B800083609360450025C05500358D8A067EF89
:1002C80001F069EF01F06EEF01F00450025E055095
:1002D800035A0880D89005320432062E5BEF01F0ED
:1002E8000750D8B47AEF01F07CEF01F080EF01F00D
:1002F800086C091ED8B0092A08C002F009C003F02A
:100308001200220E086E1A0E096E240E0A6E87EC71
:1003180002F008500910D8B494EF01F096EF01F0FC
:10032800DCEF01F0100E22182310D8A49EEF01F084
:10033800A0EF01F0A8EF01F01A0E126E24C013F01E
:10034800D7EC02F0DCEF01F0200E22182310D8A41D
:10035800B0EF01F0B2EF01F0BAEF01F01A0E076E3C
:1003680024C008F05FEC04F0DCEF01F0300E221836
:100378002310D8A4C2EF01F0C4EF01F0CCEF01F0D4
:100388001A0E126E24C013F0C1EC00F0DCEF01F07D
:10039800400E22182310D8A4D4EF01F0D6EF01F0B4
:1003A800DCEF01F01A0E076E24C008F009EC00F02B
:1003B80012000F6A0BBEE5EF01F0E3EF01F0EBEF7F
:1003C80001F00A6C0B1ED8B00B2A010E0F6E0DBE81
:1003D800F2EF01F0F0EF01F0F6EF01F00C6C0D1EFA
:1003E800D8B00D2A0C500D10D8B4FDEF01F0FFEF76
:1003F80001F023EF02F0010E0E6E07EF02F0D89025
:100408000C360D360E2A0DAE0CEF02F00EEF02F090
:1004180003EF02F00C500A5C0D500B58D8A017EFF0
:1004280002F019EF02F01DEF02F00C500A5E0D50B9
:100438000B5AD8900D320C320E2E0EEF02F00F50E0
:10044800D8B429EF02F02BEF02F02FEF02F00A6C7C
:100458000B1ED8B00B2A0AC00AF00BC00BF0120012
:10046800956A9450F80B946E8290C30E046ECD0E6C
:10047800E82EFED7042EFCD70000000E026E330EC5
:100488000FEC04F01B0E046E9E0EE82EFED7042E11
:10049800FCD700D0000E026E330E0FEC04F0A60E4F
:1004A800E82EFED700D0000E026E330E0FEC04F0DB
:1004B80000D000D00000000E026E020E0FEC04F017
:1004C800A60EE82EFED700D0000E026E380E0FECF6
:1004D80004F0A60EE82EFED700D0000E026E010E24
:1004E8000FEC04F0040E046E3E0EE82EFED7042E28
:1004F800FCD7000E026E0C0E0FEC04F0A60EE82ED0
:10050800FED700D0120060AE8CEF02F08EEF02F042
:10051800CFEF02F046EC04F00850D96EDA6A02C058
:10052800DEFF03C0DDFF0A50D96EDA6A65CFDFFF50
:10053800660E0E6E0F0E0F6E116A000E106EB3EF80
:1005480002F010500E24D96E11500F20DA6E0950A7
:100558001024E16EE26ADFCFE7FF104A112A0A5041
:10056800D96EDA6ADF500B6E0C6A0B50105C1150B2
:10057800800A0D6E0C50800A0D58D8A0C6EF02F004
:10058800C8EF02F0A5EF02F0609EA490096A010E80
:10059800086ED6EF02F00A50D96EDA6ADF6A096A85
:1005A800000E086E12001250D96EDA6ADF50146E0F
:1005B800C00E106E14C002F0036A056A640E046E61
:1005C80025EC01F00250300F73EC04F0C10E106EF0
:1005D800056A0A0E046E14C002F0036A25EC01F0E5
:1005E80002C00AF003C00BF00D6A0A0E0C6EDDECB7
:1005F80001F00A50300F73EC04F0C20E106E14C0F4
:100608000AF00B6A0D6A0A0E0C6EDDEC01F00A5056
:10061800300F73EC04F01200076A000E066E0450E7
:100628000510D8B41AEF03F01CEF03F044EF03F001
:10063800010E086E24EF03F0D89004360536082A18
:1006480005AE29EF03F02BEF03F020EF03F0D8906D
:10065800063607360450025C05500358D8A037EF19
:1006680003F039EF03F03EEF03F00450025E05504B
:10067800035A0680D89005320432082E2BEF03F077
:1006880006C002F007C003F012000B500C10D8B4DB
:1006980050EF03F052EF03F076EF03F0010E0D6E0A
:1006A8005AEF03F0D8900B360C360D2A0CAE5FEFDC
:1006B80003F061EF03F056EF03F00B50095C0C50A8
:1006C8000A58D8A06AEF03F06CEF03F070EF03F05C
:1006D8000B50095E0C500A5AD8900C320B320D2E72
:1006E80061EF03F009C009F00AC00AF01200060021
:1006F800F2A481EF03F083EF03F0A5EF03F0080EF7
:10070800D624D66E000ED720D76E354A362A100E5C
:10071800355C270E3658D8A094EF03F096EF03F017
:10072800A4EF03F0366A000E356E3750D8B49FEF49
:1007380003F0A2EF03F0010EA3EF03F0000E376EF3
:10074800F294019211007FEC04F0D30E046E2F0E88
:10075800056E800E066ECFEC03F0D70E046E2F0EDA
:10076800056E840E066ECFEC03F0FC0E046E2F0EA1
:10077800056E890E066ECFEC03F0CF0E046E2F0EB9
:10078800056E8C0E066ECFEC03F085EC01F0C9EF18
:1007980003F007EF00F0000E026E06500FEC04F0B5
:1007A800E2EF03F0010E026E04C0F6FF05C0F7FF8A
:1007B8000800F5500FEC04F0044A052A04C0F6FFBF
:1007C80005C0F7FF0800F5500009D8A4EEEF03F0C4
:1007D800F0EF03F0D6EF03F01200939493861F0E08
:1007E8006F166F8E800E6E18D8A4FDEF03F0FFEF22
:1007F80003F0F6EF03F0776AE10E706E1B0E716E70
:10080800030E726E0D01D46B1F0E6F166F50606A67
:10081800608A608C1200036E02B015EF04F018EFC6
:1008280004F0828219EF04F0829203C083FF82846D
:100838008294958E828082928284829483BE27EFEE
:1008480004F029EF04F020EF04F08290959E120046
:100858002A0EF66E090EF76E000EF86E00EE25F001
:1008680010EE10F00900F5CFEEFFE550E150FAE187
:10087800376A366A356A01900192000EF86E0001F7
:10088800A7EF03F06150046E056AD8900436053668
:10089800D89004360536D890043605366238E842D2
:1008A800070B070B066E076A04500610026E055008
:1008B8000710036E12000750D96EDA6ADF50096E0E
:1008C8000950020DF350250FD96EDA6ADECF04F015
:1008D800DDCF05F0C90E066ECFEC03F01200116EE5
:1008E800000E026E10500FEC04F0010E026E115053
:1008F8000FEC04F0120093908190939E819EF1EC8E
:1009080003F034EC02F08AEC04F01200D59AD58694
:10091800D76A060ED66ED58EF294F28AF28EF28CD3
:100928001200ED2FDE2FE12FE42FE72FEA2FF02F13
:02093800F92F95
:102FCE0000494E44005350440052504D0020200002
:102FDE003120003220003320003420003520004EF6
:102FEE0020005220003C2D002D3E005F4300475232
:022FFE000000D1
:00000001FF
